{
  "_format": "hh-sol-artifact-1",
  "contractName": "NFTMarketplace_New",
  "sourceName": "contracts/NFTMarketplace_New.sol",
  "abi": [
    {
      "inputs": [],
      "stateMutability": "nonpayable",
      "type": "constructor"
    },
    {
      "anonymous": false,
      "inputs": [
        {
          "indexed": true,
          "internalType": "address",
          "name": "owner",
          "type": "address"
        },
        {
          "indexed": true,
          "internalType": "address",
          "name": "approved",
          "type": "address"
        },
        {
          "indexed": true,
          "internalType": "uint256",
          "name": "tokenId",
          "type": "uint256"
        }
      ],
      "name": "Approval",
      "type": "event"
    },
    {
      "anonymous": false,
      "inputs": [
        {
          "indexed": true,
          "internalType": "address",
          "name": "owner",
          "type": "address"
        },
        {
          "indexed": true,
          "internalType": "address",
          "name": "operator",
          "type": "address"
        },
        {
          "indexed": false,
          "internalType": "bool",
          "name": "approved",
          "type": "bool"
        }
      ],
      "name": "ApprovalForAll",
      "type": "event"
    },
    {
      "anonymous": false,
      "inputs": [
        {
          "indexed": false,
          "internalType": "uint256",
          "name": "_fromTokenId",
          "type": "uint256"
        },
        {
          "indexed": false,
          "internalType": "uint256",
          "name": "_toTokenId",
          "type": "uint256"
        }
      ],
      "name": "BatchMetadataUpdate",
      "type": "event"
    },
    {
      "anonymous": false,
      "inputs": [
        {
          "indexed": false,
          "internalType": "uint256",
          "name": "_tokenId",
          "type": "uint256"
        }
      ],
      "name": "MetadataUpdate",
      "type": "event"
    },
    {
      "anonymous": false,
      "inputs": [
        {
          "indexed": true,
          "internalType": "uint256",
          "name": "tokenId",
          "type": "uint256"
        },
        {
          "indexed": false,
          "internalType": "address",
          "name": "owner",
          "type": "address"
        },
        {
          "indexed": false,
          "internalType": "address",
          "name": "seller",
          "type": "address"
        },
        {
          "indexed": false,
          "internalType": "uint256",
          "name": "price",
          "type": "uint256"
        },
        {
          "indexed": false,
          "internalType": "bool",
          "name": "currentlyListed",
          "type": "bool"
        }
      ],
      "name": "TokenListedSuccess",
      "type": "event"
    },
    {
      "anonymous": false,
      "inputs": [
        {
          "indexed": true,
          "internalType": "address",
          "name": "from",
          "type": "address"
        },
        {
          "indexed": true,
          "internalType": "address",
          "name": "to",
          "type": "address"
        },
        {
          "indexed": true,
          "internalType": "uint256",
          "name": "tokenId",
          "type": "uint256"
        }
      ],
      "name": "Transfer",
      "type": "event"
    },
    {
      "inputs": [
        {
          "internalType": "uint256",
          "name": "tokenId",
          "type": "uint256"
        },
        {
          "internalType": "uint256",
          "name": "_NewPrice",
          "type": "uint256"
        }
      ],
      "name": "EditPrice",
      "outputs": [],
      "stateMutability": "nonpayable",
      "type": "function"
    },
    {
      "inputs": [
        {
          "internalType": "uint256",
          "name": "_tokenId",
          "type": "uint256"
        },
        {
          "internalType": "uint256",
          "name": "_price",
          "type": "uint256"
        }
      ],
      "name": "ListingToSale",
      "outputs": [],
      "stateMutability": "payable",
      "type": "function"
    },
    {
      "inputs": [
        {
          "internalType": "address",
          "name": "to",
          "type": "address"
        },
        {
          "internalType": "uint256",
          "name": "tokenId",
          "type": "uint256"
        }
      ],
      "name": "approve",
      "outputs": [],
      "stateMutability": "nonpayable",
      "type": "function"
    },
    {
      "inputs": [
        {
          "internalType": "address",
          "name": "owner",
          "type": "address"
        }
      ],
      "name": "balanceOf",
      "outputs": [
        {
          "internalType": "uint256",
          "name": "",
          "type": "uint256"
        }
      ],
      "stateMutability": "view",
      "type": "function"
    },
    {
      "inputs": [
        {
          "internalType": "uint256[]",
          "name": "_MultitokenIds",
          "type": "uint256[]"
        }
      ],
      "name": "buyMultipleNFTs",
      "outputs": [],
      "stateMutability": "payable",
      "type": "function"
    },
    {
      "inputs": [
        {
          "internalType": "string",
          "name": "tokenURI",
          "type": "string"
        },
        {
          "internalType": "uint256",
          "name": "price",
          "type": "uint256"
        }
      ],
      "name": "createToken",
      "outputs": [
        {
          "internalType": "uint256",
          "name": "",
          "type": "uint256"
        }
      ],
      "stateMutability": "payable",
      "type": "function"
    },
    {
      "inputs": [
        {
          "internalType": "uint256",
          "name": "tokenId",
          "type": "uint256"
        }
      ],
      "name": "executeSale",
      "outputs": [],
      "stateMutability": "payable",
      "type": "function"
    },
    {
      "inputs": [],
      "name": "getAllNFTs",
      "outputs": [
        {
          "components": [
            {
              "internalType": "uint256",
              "name": "tokenId",
              "type": "uint256"
            },
            {
              "internalType": "address payable",
              "name": "owner",
              "type": "address"
            },
            {
              "internalType": "address payable",
              "name": "seller",
              "type": "address"
            },
            {
              "internalType": "uint256",
              "name": "price",
              "type": "uint256"
            },
            {
              "internalType": "bool",
              "name": "currentlyListed",
              "type": "bool"
            }
          ],
          "internalType": "struct NFTMarketplace_New.ListedToken[]",
          "name": "",
          "type": "tuple[]"
        }
      ],
      "stateMutability": "view",
      "type": "function"
    },
    {
      "inputs": [
        {
          "internalType": "uint256",
          "name": "tokenId",
          "type": "uint256"
        }
      ],
      "name": "getApproved",
      "outputs": [
        {
          "internalType": "address",
          "name": "",
          "type": "address"
        }
      ],
      "stateMutability": "view",
      "type": "function"
    },
    {
      "inputs": [],
      "name": "getCurrentToken",
      "outputs": [
        {
          "internalType": "uint256",
          "name": "",
          "type": "uint256"
        }
      ],
      "stateMutability": "view",
      "type": "function"
    },
    {
      "inputs": [],
      "name": "getLatestIdToListedToken",
      "outputs": [
        {
          "components": [
            {
              "internalType": "uint256",
              "name": "tokenId",
              "type": "uint256"
            },
            {
              "internalType": "address payable",
              "name": "owner",
              "type": "address"
            },
            {
              "internalType": "address payable",
              "name": "seller",
              "type": "address"
            },
            {
              "internalType": "uint256",
              "name": "price",
              "type": "uint256"
            },
            {
              "internalType": "bool",
              "name": "currentlyListed",
              "type": "bool"
            }
          ],
          "internalType": "struct NFTMarketplace_New.ListedToken",
          "name": "",
          "type": "tuple"
        }
      ],
      "stateMutability": "view",
      "type": "function"
    },
    {
      "inputs": [],
      "name": "getListPrice",
      "outputs": [
        {
          "internalType": "uint256",
          "name": "",
          "type": "uint256"
        }
      ],
      "stateMutability": "view",
      "type": "function"
    },
    {
      "inputs": [
        {
          "internalType": "uint256",
          "name": "tokenId",
          "type": "uint256"
        }
      ],
      "name": "getListedTokenForId",
      "outputs": [
        {
          "components": [
            {
              "internalType": "uint256",
              "name": "tokenId",
              "type": "uint256"
            },
            {
              "internalType": "address payable",
              "name": "owner",
              "type": "address"
            },
            {
              "internalType": "address payable",
              "name": "seller",
              "type": "address"
            },
            {
              "internalType": "uint256",
              "name": "price",
              "type": "uint256"
            },
            {
              "internalType": "bool",
              "name": "currentlyListed",
              "type": "bool"
            }
          ],
          "internalType": "struct NFTMarketplace_New.ListedToken",
          "name": "",
          "type": "tuple"
        }
      ],
      "stateMutability": "view",
      "type": "function"
    },
    {
      "inputs": [],
      "name": "getMyNFTs",
      "outputs": [
        {
          "components": [
            {
              "internalType": "uint256",
              "name": "tokenId",
              "type": "uint256"
            },
            {
              "internalType": "address payable",
              "name": "owner",
              "type": "address"
            },
            {
              "internalType": "address payable",
              "name": "seller",
              "type": "address"
            },
            {
              "internalType": "uint256",
              "name": "price",
              "type": "uint256"
            },
            {
              "internalType": "bool",
              "name": "currentlyListed",
              "type": "bool"
            }
          ],
          "internalType": "struct NFTMarketplace_New.ListedToken[]",
          "name": "",
          "type": "tuple[]"
        }
      ],
      "stateMutability": "view",
      "type": "function"
    },
    {
      "inputs": [
        {
          "internalType": "address",
          "name": "owner",
          "type": "address"
        },
        {
          "internalType": "address",
          "name": "operator",
          "type": "address"
        }
      ],
      "name": "isApprovedForAll",
      "outputs": [
        {
          "internalType": "bool",
          "name": "",
          "type": "bool"
        }
      ],
      "stateMutability": "view",
      "type": "function"
    },
    {
      "inputs": [],
      "name": "name",
      "outputs": [
        {
          "internalType": "string",
          "name": "",
          "type": "string"
        }
      ],
      "stateMutability": "view",
      "type": "function"
    },
    {
      "inputs": [
        {
          "internalType": "uint256",
          "name": "tokenId",
          "type": "uint256"
        }
      ],
      "name": "ownerOf",
      "outputs": [
        {
          "internalType": "address",
          "name": "",
          "type": "address"
        }
      ],
      "stateMutability": "view",
      "type": "function"
    },
    {
      "inputs": [
        {
          "internalType": "address",
          "name": "from",
          "type": "address"
        },
        {
          "internalType": "address",
          "name": "to",
          "type": "address"
        },
        {
          "internalType": "uint256",
          "name": "tokenId",
          "type": "uint256"
        }
      ],
      "name": "safeTransferFrom",
      "outputs": [],
      "stateMutability": "nonpayable",
      "type": "function"
    },
    {
      "inputs": [
        {
          "internalType": "address",
          "name": "from",
          "type": "address"
        },
        {
          "internalType": "address",
          "name": "to",
          "type": "address"
        },
        {
          "internalType": "uint256",
          "name": "tokenId",
          "type": "uint256"
        },
        {
          "internalType": "bytes",
          "name": "data",
          "type": "bytes"
        }
      ],
      "name": "safeTransferFrom",
      "outputs": [],
      "stateMutability": "nonpayable",
      "type": "function"
    },
    {
      "inputs": [
        {
          "internalType": "address",
          "name": "operator",
          "type": "address"
        },
        {
          "internalType": "bool",
          "name": "approved",
          "type": "bool"
        }
      ],
      "name": "setApprovalForAll",
      "outputs": [],
      "stateMutability": "nonpayable",
      "type": "function"
    },
    {
      "inputs": [
        {
          "internalType": "bytes4",
          "name": "interfaceId",
          "type": "bytes4"
        }
      ],
      "name": "supportsInterface",
      "outputs": [
        {
          "internalType": "bool",
          "name": "",
          "type": "bool"
        }
      ],
      "stateMutability": "view",
      "type": "function"
    },
    {
      "inputs": [],
      "name": "symbol",
      "outputs": [
        {
          "internalType": "string",
          "name": "",
          "type": "string"
        }
      ],
      "stateMutability": "view",
      "type": "function"
    },
    {
      "inputs": [
        {
          "internalType": "uint256",
          "name": "tokenId",
          "type": "uint256"
        }
      ],
      "name": "tokenURI",
      "outputs": [
        {
          "internalType": "string",
          "name": "",
          "type": "string"
        }
      ],
      "stateMutability": "view",
      "type": "function"
    },
    {
      "inputs": [
        {
          "internalType": "address",
          "name": "from",
          "type": "address"
        },
        {
          "internalType": "address",
          "name": "to",
          "type": "address"
        },
        {
          "internalType": "uint256",
          "name": "tokenId",
          "type": "uint256"
        }
      ],
      "name": "transferFrom",
      "outputs": [],
      "stateMutability": "nonpayable",
      "type": "function"
    },
    {
      "inputs": [
        {
          "internalType": "uint256",
          "name": "tokenId",
          "type": "uint256"
        }
      ],
      "name": "unlistNFT",
      "outputs": [],
      "stateMutability": "nonpayable",
      "type": "function"
    },
    {
      "inputs": [
        {
          "internalType": "uint256",
          "name": "_listPrice",
          "type": "uint256"
        }
      ],
      "name": "updateListPrice",
      "outputs": [],
      "stateMutability": "payable",
      "type": "function"
    },
    {
      "inputs": [],
      "name": "withDraw",
      "outputs": [],
      "stateMutability": "nonpayable",
      "type": "function"
    }
  ],
  "bytecode": "0x6080604052662386f26fc10000600a553480156200001c57600080fd5b50604080518082018252600e81526d4e46544d61726b6574706c61636560901b6020808301918252835180850190945260048452634e46544d60e01b9084015281519192916200006f91600091620000a0565b50805162000085906001906020840190620000a0565b5050600980546001600160a01b031916331790555062000183565b828054620000ae9062000146565b90600052602060002090601f016020900481019282620000d257600085556200011d565b82601f10620000ed57805160ff19168380011785556200011d565b828001600101855582156200011d579182015b828111156200011d57825182559160200191906001019062000100565b506200012b9291506200012f565b5090565b5b808211156200012b576000815560010162000130565b600181811c908216806200015b57607f821691505b602082108114156200017d57634e487b7160e01b600052602260045260246000fd5b50919050565b61293680620001936000396000f3fe60806040526004361061019b5760003560e01c80638e264590116100ec578063c87b56dd1161008a578063e985e9c511610064578063e985e9c51461046c578063ef2d1746146104b5578063f0437c45146104ca578063fcc3daea146104dd57600080fd5b8063c87b56dd14610422578063d1a88ae514610442578063e0391b091461045757600080fd5b80639b1225c4116100c65780639b1225c4146103bc578063a22cb465146103cf578063b88d4fde146103ef578063c322579c1461040f57600080fd5b80638e2645901461035a57806395d89b4114610387578063961f09441461039c57600080fd5b806323b872dd116101595780636352211e116101335780636352211e146102e857806368f1945f1461030857806370a082311461032757806372b3b6201461034757600080fd5b806323b872dd1461028657806342842e0e146102a6578063629cb2e4146102c657600080fd5b80623228a2146101a057806301ffc9a7146101c257806306fdde03146101f7578063081812fc14610219578063095ea7b3146102515780630fdb1c1014610271575b600080fd5b3480156101ac57600080fd5b506101c06101bb36600461252f565b6104f0565b005b3480156101ce57600080fd5b506101e26101dd366004612489565b61055e565b60405190151581526020015b60405180910390f35b34801561020357600080fd5b5061020c610589565b6040516101ee9190612676565b34801561022557600080fd5b50610239610234366004612517565b61061b565b6040516001600160a01b0390911681526020016101ee565b34801561025d57600080fd5b506101c061026c3660046123b8565b610642565b34801561027d57600080fd5b506101c0610758565b34801561029257600080fd5b506101c06102a13660046122ca565b610805565b3480156102b257600080fd5b506101c06102c13660046122ca565b610836565b3480156102d257600080fd5b506102db610851565b6040516101ee9190612628565b3480156102f457600080fd5b50610239610303366004612517565b610a94565b34801561031457600080fd5b50600a545b6040519081526020016101ee565b34801561033357600080fd5b5061031961034236600461227e565b610af4565b6103196103553660046124c1565b610b7a565b34801561036657600080fd5b5061037a610375366004612517565b610bbc565b6040516101ee91906127e5565b34801561039357600080fd5b5061020c610c26565b3480156103a857600080fd5b506101c06103b7366004612517565b610c35565b6101c06103ca366004612517565b610d80565b3480156103db57600080fd5b506101c06103ea36600461237e565b610f13565b3480156103fb57600080fd5b506101c061040a366004612305565b610f22565b6101c061041d366004612517565b610f5a565b34801561042e57600080fd5b5061020c61043d366004612517565b610fc5565b34801561044e57600080fd5b5061037a6110d6565b34801561046357600080fd5b506102db61114d565b34801561047857600080fd5b506101e2610487366004612298565b6001600160a01b03918216600090815260056020908152604080832093909416825291909152205460ff1690565b3480156104c157600080fd5b50610319611293565b6101c06104d836600461252f565b6112a3565b6101c06104eb3660046123e1565b61135f565b6000828152600b60205260409020600481015460ff1661052b5760405162461bcd60e51b8152600401610522906127ae565b60405180910390fd5b60018101546001600160a01b031633146105575760405162461bcd60e51b8152600401610522906126d6565b6003015550565b60006001600160e01b03198216632483248360e11b14806105835750610583826115f4565b92915050565b60606000805461059890612868565b80601f01602080910402602001604051908101604052809291908181526020018280546105c490612868565b80156106115780601f106105e657610100808354040283529160200191610611565b820191906000526020600020905b8154815290600101906020018083116105f457829003601f168201915b5050505050905090565b600061062682611644565b506000908152600460205260409020546001600160a01b031690565b600061064d82610a94565b9050806001600160a01b0316836001600160a01b031614156106bb5760405162461bcd60e51b815260206004820152602160248201527f4552433732313a20617070726f76616c20746f2063757272656e74206f776e656044820152603960f91b6064820152608401610522565b336001600160a01b03821614806106d757506106d78133610487565b6107495760405162461bcd60e51b815260206004820152603d60248201527f4552433732313a20617070726f76652063616c6c6572206973206e6f7420746f60448201527f6b656e206f776e6572206f7220617070726f76656420666f7220616c6c0000006064820152608401610522565b61075383836116a3565b505050565b6009546001600160a01b031633146107c95760405162461bcd60e51b815260206004820152602e60248201527f6f6e6c79206d61726b6574706c616365206f776e65722063616e2063616c6c2060448201526d3a3434b990333ab731ba34b7b71760911b6064820152608401610522565b6009546040516001600160a01b03909116904780156108fc02916000818181858888f19350505050158015610802573d6000803e3d6000fd5b50565b61080f3382611711565b61082b5760405162461bcd60e51b815260040161052290612689565b61075383838361178f565b61075383838360405180602001604052806000815250610f22565b6060600061085e60075490565b905060008080805b848110156108f65733600b600061087e846001612824565b81526020810191909152604001600020600101546001600160a01b031614806108d1575033600b60006108b2846001612824565b81526020810191909152604001600020600201546001600160a01b0316145b156108e4576108e1600185612824565b93505b806108ee816128a3565b915050610866565b5060008367ffffffffffffffff81111561092057634e487b7160e01b600052604160045260246000fd5b60405190808252806020026020018201604052801561095957816020015b610946612143565b81526020019060019003908161093e5790505b50905060005b85811015610a8a5733600b6000610977846001612824565b81526020810191909152604001600020600101546001600160a01b031614806109ca575033600b60006109ab846001612824565b81526020810191909152604001600020600201546001600160a01b0316145b15610a78576109da816001612824565b6000818152600b6020908152604091829020825160a0810184528154815260018201546001600160a01b039081169382019390935260028201549092169282019290925260038201546060820152600482015460ff161515608082015284519295509091849087908110610a5e57634e487b7160e01b600052603260045260246000fd5b6020908102919091010152610a74600186612824565b9450505b80610a82816128a3565b91505061095f565b5095945050505050565b6000818152600260205260408120546001600160a01b0316806105835760405162461bcd60e51b8152602060048201526018602482015277115490cdcc8c4e881a5b9d985b1a59081d1bdad95b88125160421b6044820152606401610522565b60006001600160a01b038216610b5e5760405162461bcd60e51b815260206004820152602960248201527f4552433732313a2061646472657373207a65726f206973206e6f7420612076616044820152683634b21037bbb732b960b91b6064820152608401610522565b506001600160a01b031660009081526003602052604090205490565b6000610b8a600780546001019055565b6000610b9560075490565b9050610ba133826118f3565b610bab818561190d565b610bb581846119df565b9392505050565b610bc4612143565b506000908152600b6020908152604091829020825160a0810184528154815260018201546001600160a01b03908116938201939093526002820154909216928201929092526003820154606082015260049091015460ff161515608082015290565b60606001805461059890612868565b6000818152600b6020908152604091829020825160a0810184528154815260018201546001600160a01b03908116938201939093526002820154909216928201929092526003820154606082015260049091015460ff16151560808201819052610cb15760405162461bcd60e51b8152600401610522906127ae565b80602001516001600160a01b0316336001600160a01b031614610ce65760405162461bcd60e51b8152600401610522906126d6565b610cf130338461178f565b506040805160a08101825282815233602080830191825260008385018181526060850182815260808601838152978352600b9093529490209251835590516001830180546001600160a01b03199081166001600160a01b039384161790915593516002840180549095169116179092559051600382015590516004909101805460ff1916911515919091179055565b6000818152600b602052604090206003810154600182015460049092015490916001600160a01b03169060ff16610dc95760405162461bcd60e51b8152600401610522906127ae565b81341015610e41576040805162461bcd60e51b81526020600482015260248101919091527f506c65617365207375626d6974207468652061736b696e67207072696365206960448201527f6e206f7264657220746f20636f6d706c657465207468652070757263686173656064820152608401610522565b610e4c30338561178f565b6040516001600160a01b038216903480156108fc02916000818181858888f19350505050158015610e81573d6000803e3d6000fd5b50506040805160a08101825283815233602080830191825260008385018181526060850182815260808601838152988352600b9093529490209251835590516001830180546001600160a01b03199081166001600160a01b039384161790915593516002840180549095169116179092559051600382015591516004909201805460ff19169215159290921790915550565b610f1e338383611b80565b5050565b610f2c3383611711565b610f485760405162461bcd60e51b815260040161052290612689565b610f5484848484611c4f565b50505050565b6009546001600160a01b03163314610fc05760405162461bcd60e51b815260206004820152602360248201527f4f6e6c79206f776e65722063616e20757064617465206c697374696e6720707260448201526269636560e81b6064820152608401610522565b600a55565b6060610fd082611644565b60008281526006602052604081208054610fe990612868565b80601f016020809104026020016040519081016040528092919081815260200182805461101590612868565b80156110625780601f1061103757610100808354040283529160200191611062565b820191906000526020600020905b81548152906001019060200180831161104557829003601f168201915b50505050509050600061108060408051602081019091526000815290565b9050805160001415611093575092915050565b8151156110c55780826040516020016110ad9291906125bc565b60405160208183030381529060405292505050919050565b6110ce84611c82565b949350505050565b6110de612143565b60006110e960075490565b6000908152600b6020908152604091829020825160a0810184528154815260018201546001600160a01b03908116938201939093526002820154909216928201929092526003820154606082015260049091015460ff161515608082015292915050565b6060600061115a60075490565b905060008167ffffffffffffffff81111561118557634e487b7160e01b600052604160045260246000fd5b6040519080825280602002602001820160405280156111be57816020015b6111ab612143565b8152602001906001900390816111a35790505b509050600080805b84811015611289576111d9816001612824565b6000818152600b6020908152604091829020825160a0810184528154815260018201546001600160a01b039081169382019390935260028201549092169282019290925260038201546060820152600482015460ff16151560808201528651929450909186908690811061125d57634e487b7160e01b600052603260045260246000fd5b6020908102919091010152611273600185612824565b9350508080611281906128a3565b9150506111c6565b5091949350505050565b600061129e60075490565b905090565b6007548211156112f55760405162461bcd60e51b815260206004820152601a60248201527f506c6561736520656e6465722076616c696420746f6b656e49640000000000006044820152606401610522565b336112ff83610a94565b6001600160a01b0316146113555760405162461bcd60e51b815260206004820152601f60248201527f796f7520617265206e6f74206f776e6572206f66207468697320546f6b656e006044820152606401610522565b610f1e82826119df565b6000805b825181101561146b57600b600084838151811061139057634e487b7160e01b600052603260045260246000fd5b60209081029190910181015182528101919091526040016000206004015460ff16151560011461140e5760405162461bcd60e51b815260206004820152602360248201527f506c6561736520636865636b20746f6b656e4964732076616c6964206f72206e60448201526237ba1760e91b6064820152608401610522565b600b600084838151811061143257634e487b7160e01b600052603260045260246000fd5b6020026020010151815260200190815260200160002060030154826114579190612824565b915080611463816128a3565b915050611363565b50803410156114bc5760405162461bcd60e51b815260206004820152601f60248201527f76616c7565206973206e6f7420656e6f75676820746f20627579204e46542e006044820152606401610522565b60005b82518110156107535760008382815181106114ea57634e487b7160e01b600052603260045260246000fd5b602002602001015190506114ff30338361178f565b6000818152600b60205260408082206003810154600190910154915190926001600160a01b0390921691829184156108fc0291859190818181858888f19350505050158015611552573d6000803e3d6000fd5b50506040805160a08101825283815233602080830191825260008385018181526060850182815260808601838152988352600b9093529490209251835590516001830180546001600160a01b03199081166001600160a01b039384161790915593516002840180549095169116179092559051600382015591516004909201805460ff19169215159290921790915550806115ec816128a3565b9150506114bf565b60006001600160e01b031982166380ac58cd60e01b148061162557506001600160e01b03198216635b5e139f60e01b145b8061058357506301ffc9a760e01b6001600160e01b0319831614610583565b6000818152600260205260409020546001600160a01b03166108025760405162461bcd60e51b8152602060048201526018602482015277115490cdcc8c4e881a5b9d985b1a59081d1bdad95b88125160421b6044820152606401610522565b600081815260046020526040902080546001600160a01b0319166001600160a01b03841690811790915581906116d882610a94565b6001600160a01b03167f8c5be1e5ebec7d5bd14f71427d1e84f3dd0314c0f7b2291e5b200ac8c7c3b92560405160405180910390a45050565b60008061171d83610a94565b9050806001600160a01b0316846001600160a01b0316148061176457506001600160a01b0380821660009081526005602090815260408083209388168352929052205460ff165b806110ce5750836001600160a01b031661177d8461061b565b6001600160a01b031614949350505050565b826001600160a01b03166117a282610a94565b6001600160a01b0316146117c85760405162461bcd60e51b815260040161052290612769565b6001600160a01b03821661182a5760405162461bcd60e51b8152602060048201526024808201527f4552433732313a207472616e7366657220746f20746865207a65726f206164646044820152637265737360e01b6064820152608401610522565b826001600160a01b031661183d82610a94565b6001600160a01b0316146118635760405162461bcd60e51b815260040161052290612769565b600081815260046020908152604080832080546001600160a01b03199081169091556001600160a01b0387811680865260038552838620805460001901905590871680865283862080546001019055868652600290945282852080549092168417909155905184937fddf252ad1be2c89b69c2b068fc378daa952ba7f163c4a11628f55a4df523b3ef91a4505050565b610f1e828260405180602001604052806000815250611cf5565b6000828152600260205260409020546001600160a01b03166119885760405162461bcd60e51b815260206004820152602e60248201527f45524337323155524953746f726167653a2055524920736574206f66206e6f6e60448201526d32bc34b9ba32b73a103a37b5b2b760911b6064820152608401610522565b600082815260066020908152604090912082516119a792840190612171565b506040518281527ff8e1a15aba9398e019f0b49df1a4fde98ee17ae345cb5f6b5e2c27f5033e8ce79060200160405180910390a15050565b600a543414611a3c5760405162461bcd60e51b815260206004820152602360248201527f486f706566756c6c792073656e64696e672074686520636f727265637420707260448201526269636560e81b6064820152608401610522565b60008111611a975760405162461bcd60e51b815260206004820152602260248201527f4d616b652073757265207468652070726963652069736e2774206e6567617469604482015261766560f01b6064820152608401610522565b6040805160a081018252838152336020808301828152308486018181526060860188815260016080880181815260008c8152600b9097529890952096518755925193860180546001600160a01b039586166001600160a01b03199182161790915590516002870180549190951691161790925551600384015592516004909201805492151560ff1990931692909217909155611b33918461178f565b604080513381523060208201529081018290526001606082015282907f9339409317fd01fabff48b703019016f49159bacc801ae872d2ca637d226e4c09060800160405180910390a25050565b816001600160a01b0316836001600160a01b03161415611be25760405162461bcd60e51b815260206004820152601960248201527f4552433732313a20617070726f766520746f2063616c6c6572000000000000006044820152606401610522565b6001600160a01b03838116600081815260056020908152604080832094871680845294825291829020805460ff191686151590811790915591519182527f17307eab39ab6107e8899845ad3d59bd9653f200f220920489ca2b5937696c31910160405180910390a3505050565b611c5a84848461178f565b611c6684848484611d28565b610f545760405162461bcd60e51b815260040161052290612717565b6060611c8d82611644565b6000611ca460408051602081019091526000815290565b90506000815111611cc45760405180602001604052806000815250610bb5565b80611cce84611e35565b604051602001611cdf9291906125bc565b6040516020818303038152906040529392505050565b611cff8383611ee0565b611d0c6000848484611d28565b6107535760405162461bcd60e51b815260040161052290612717565b60006001600160a01b0384163b15611e2a57604051630a85bd0160e11b81526001600160a01b0385169063150b7a0290611d6c9033908990889088906004016125eb565b602060405180830381600087803b158015611d8657600080fd5b505af1925050508015611db6575060408051601f3d908101601f19168201909252611db3918101906124a5565b60015b611e10573d808015611de4576040519150601f19603f3d011682016040523d82523d6000602084013e611de9565b606091505b508051611e085760405162461bcd60e51b815260040161052290612717565b805181602001fd5b6001600160e01b031916630a85bd0160e11b1490506110ce565b506001949350505050565b60606000611e428361206b565b600101905060008167ffffffffffffffff811115611e7057634e487b7160e01b600052604160045260246000fd5b6040519080825280601f01601f191660200182016040528015611e9a576020820181803683370190505b5090508181016020015b600019016f181899199a1a9b1b9c1cb0b131b232b360811b600a86061a8153600a8504945084611ed357611ed8565b611ea4565b509392505050565b6001600160a01b038216611f365760405162461bcd60e51b815260206004820181905260248201527f4552433732313a206d696e7420746f20746865207a65726f20616464726573736044820152606401610522565b6000818152600260205260409020546001600160a01b031615611f9b5760405162461bcd60e51b815260206004820152601c60248201527f4552433732313a20746f6b656e20616c7265616479206d696e746564000000006044820152606401610522565b6000818152600260205260409020546001600160a01b0316156120005760405162461bcd60e51b815260206004820152601c60248201527f4552433732313a20746f6b656e20616c7265616479206d696e746564000000006044820152606401610522565b6001600160a01b038216600081815260036020908152604080832080546001019055848352600290915280822080546001600160a01b0319168417905551839291907fddf252ad1be2c89b69c2b068fc378daa952ba7f163c4a11628f55a4df523b3ef908290a45050565b60008072184f03e93ff9f4daa797ed6e38ed64bf6a1f0160401b83106120aa5772184f03e93ff9f4daa797ed6e38ed64bf6a1f0160401b830492506040015b6d04ee2d6d415b85acef810000000083106120d6576d04ee2d6d415b85acef8100000000830492506020015b662386f26fc1000083106120f457662386f26fc10000830492506010015b6305f5e100831061210c576305f5e100830492506008015b612710831061212057612710830492506004015b60648310612132576064830492506002015b600a83106105835760010192915050565b6040805160a08101825260008082526020820181905291810182905260608101829052608081019190915290565b82805461217d90612868565b90600052602060002090601f01602090048101928261219f57600085556121e5565b82601f106121b857805160ff19168380011785556121e5565b828001600101855582156121e5579182015b828111156121e55782518255916020019190600101906121ca565b506121f19291506121f5565b5090565b5b808211156121f157600081556001016121f6565b600067ffffffffffffffff831115612224576122246128d4565b612237601f8401601f19166020016127f3565b905082815283838301111561224b57600080fd5b828260208301376000602084830101529392505050565b80356001600160a01b038116811461227957600080fd5b919050565b60006020828403121561228f578081fd5b610bb582612262565b600080604083850312156122aa578081fd5b6122b383612262565b91506122c160208401612262565b90509250929050565b6000806000606084860312156122de578081fd5b6122e784612262565b92506122f560208501612262565b9150604084013590509250925092565b6000806000806080858703121561231a578081fd5b61232385612262565b935061233160208601612262565b925060408501359150606085013567ffffffffffffffff811115612353578182fd5b8501601f81018713612363578182fd5b6123728782356020840161220a565b91505092959194509250565b60008060408385031215612390578182fd5b61239983612262565b9150602083013580151581146123ad578182fd5b809150509250929050565b600080604083850312156123ca578182fd5b6123d383612262565b946020939093013593505050565b600060208083850312156123f3578182fd5b823567ffffffffffffffff8082111561240a578384fd5b818501915085601f83011261241d578384fd5b81358181111561242f5761242f6128d4565b8060051b91506124408483016127f3565b8181528481019084860184860187018a101561245a578788fd5b8795505b8386101561247c57803583526001959095019491860191860161245e565b5098975050505050505050565b60006020828403121561249a578081fd5b8135610bb5816128ea565b6000602082840312156124b6578081fd5b8151610bb5816128ea565b600080604083850312156124d3578182fd5b823567ffffffffffffffff8111156124e9578283fd5b8301601f810185136124f9578283fd5b6125088582356020840161220a565b95602094909401359450505050565b600060208284031215612528578081fd5b5035919050565b60008060408385031215612541578182fd5b50508035926020909101359150565b6000815180845261256881602086016020860161283c565b601f01601f19169290920160200192915050565b805182526020808201516001600160a01b039081169184019190915260408083015190911690830152606080820151908301526080908101511515910152565b600083516125ce81846020880161283c565b8351908301906125e281836020880161283c565b01949350505050565b6001600160a01b038581168252841660208201526040810183905260806060820181905260009061261e90830184612550565b9695505050505050565b6020808252825182820181905260009190848201906040850190845b8181101561266a5761265783855161257c565b9284019260a09290920191600101612644565b50909695505050505050565b602081526000610bb56020830184612550565b6020808252602d908201527f4552433732313a2063616c6c6572206973206e6f7420746f6b656e206f776e6560408201526c1c881bdc88185c1c1c9bdd9959609a1b606082015260800190565b60208082526021908201527f6f6e6c79206f776e65722063616e2063616c6c20746869732066756e6374696f6040820152603760f91b606082015260800190565b60208082526032908201527f4552433732313a207472616e7366657220746f206e6f6e20455243373231526560408201527131b2b4bb32b91034b6b83632b6b2b73a32b960711b606082015260800190565b60208082526025908201527f4552433732313a207472616e736665722066726f6d20696e636f72726563742060408201526437bbb732b960d91b606082015260800190565b60208082526018908201527f54686973204e4654206973206e6f7420666f722073616c650000000000000000604082015260600190565b60a08101610583828461257c565b604051601f8201601f1916810167ffffffffffffffff8111828210171561281c5761281c6128d4565b604052919050565b60008219821115612837576128376128be565b500190565b60005b8381101561285757818101518382015260200161283f565b83811115610f545750506000910152565b600181811c9082168061287c57607f821691505b6020821081141561289d57634e487b7160e01b600052602260045260246000fd5b50919050565b60006000198214156128b7576128b76128be565b5060010190565b634e487b7160e01b600052601160045260246000fd5b634e487b7160e01b600052604160045260246000fd5b6001600160e01b03198116811461080257600080fdfea26469706673582212205806cd381bdc7f550290e72e74367875a297c0e95791b16cfc41e16a4e3cbf5f64736f6c63430008040033",
  "linkReferences": {},
  "deployedLinkReferences": {}
}