{
  "_format": "hh-sol-artifact-1",
  "contractName": "NFTMarketplace",
  "sourceName": "contracts/NFTMarketplace.sol",
  "abi": [
    {
      "inputs": [],
      "stateMutability": "nonpayable",
      "type": "constructor"
    },
    {
      "anonymous": false,
      "inputs": [
        {
          "indexed": true,
          "internalType": "address",
          "name": "owner",
          "type": "address"
        },
        {
          "indexed": true,
          "internalType": "address",
          "name": "approved",
          "type": "address"
        },
        {
          "indexed": true,
          "internalType": "uint256",
          "name": "tokenId",
          "type": "uint256"
        }
      ],
      "name": "Approval",
      "type": "event"
    },
    {
      "anonymous": false,
      "inputs": [
        {
          "indexed": true,
          "internalType": "address",
          "name": "owner",
          "type": "address"
        },
        {
          "indexed": true,
          "internalType": "address",
          "name": "operator",
          "type": "address"
        },
        {
          "indexed": false,
          "internalType": "bool",
          "name": "approved",
          "type": "bool"
        }
      ],
      "name": "ApprovalForAll",
      "type": "event"
    },
    {
      "anonymous": false,
      "inputs": [
        {
          "indexed": false,
          "internalType": "uint256",
          "name": "_fromTokenId",
          "type": "uint256"
        },
        {
          "indexed": false,
          "internalType": "uint256",
          "name": "_toTokenId",
          "type": "uint256"
        }
      ],
      "name": "BatchMetadataUpdate",
      "type": "event"
    },
    {
      "anonymous": false,
      "inputs": [
        {
          "indexed": false,
          "internalType": "uint256",
          "name": "_tokenId",
          "type": "uint256"
        }
      ],
      "name": "MetadataUpdate",
      "type": "event"
    },
    {
      "anonymous": false,
      "inputs": [
        {
          "indexed": true,
          "internalType": "uint256",
          "name": "tokenId",
          "type": "uint256"
        },
        {
          "indexed": false,
          "internalType": "address",
          "name": "owner",
          "type": "address"
        },
        {
          "indexed": false,
          "internalType": "address",
          "name": "seller",
          "type": "address"
        },
        {
          "indexed": false,
          "internalType": "uint256",
          "name": "price",
          "type": "uint256"
        },
        {
          "indexed": false,
          "internalType": "bool",
          "name": "currentlyListed",
          "type": "bool"
        }
      ],
      "name": "TokenListedSuccess",
      "type": "event"
    },
    {
      "anonymous": false,
      "inputs": [
        {
          "indexed": true,
          "internalType": "address",
          "name": "from",
          "type": "address"
        },
        {
          "indexed": true,
          "internalType": "address",
          "name": "to",
          "type": "address"
        },
        {
          "indexed": true,
          "internalType": "uint256",
          "name": "tokenId",
          "type": "uint256"
        }
      ],
      "name": "Transfer",
      "type": "event"
    },
    {
      "inputs": [
        {
          "internalType": "uint256",
          "name": "_tokenId",
          "type": "uint256"
        },
        {
          "internalType": "uint256",
          "name": "_price",
          "type": "uint256"
        }
      ],
      "name": "ListingToSale",
      "outputs": [],
      "stateMutability": "payable",
      "type": "function"
    },
    {
      "inputs": [
        {
          "internalType": "address",
          "name": "to",
          "type": "address"
        },
        {
          "internalType": "uint256",
          "name": "tokenId",
          "type": "uint256"
        }
      ],
      "name": "approve",
      "outputs": [],
      "stateMutability": "nonpayable",
      "type": "function"
    },
    {
      "inputs": [
        {
          "internalType": "address",
          "name": "owner",
          "type": "address"
        }
      ],
      "name": "balanceOf",
      "outputs": [
        {
          "internalType": "uint256",
          "name": "",
          "type": "uint256"
        }
      ],
      "stateMutability": "view",
      "type": "function"
    },
    {
      "inputs": [
        {
          "internalType": "string",
          "name": "tokenURI",
          "type": "string"
        },
        {
          "internalType": "uint256",
          "name": "price",
          "type": "uint256"
        }
      ],
      "name": "createToken",
      "outputs": [
        {
          "internalType": "uint256",
          "name": "",
          "type": "uint256"
        }
      ],
      "stateMutability": "payable",
      "type": "function"
    },
    {
      "inputs": [
        {
          "internalType": "uint256",
          "name": "tokenId",
          "type": "uint256"
        }
      ],
      "name": "executeSale",
      "outputs": [],
      "stateMutability": "payable",
      "type": "function"
    },
    {
      "inputs": [],
      "name": "getAllNFTs",
      "outputs": [
        {
          "components": [
            {
              "internalType": "uint256",
              "name": "tokenId",
              "type": "uint256"
            },
            {
              "internalType": "address payable",
              "name": "owner",
              "type": "address"
            },
            {
              "internalType": "address payable",
              "name": "seller",
              "type": "address"
            },
            {
              "internalType": "uint256",
              "name": "price",
              "type": "uint256"
            },
            {
              "internalType": "bool",
              "name": "currentlyListed",
              "type": "bool"
            }
          ],
          "internalType": "struct NFTMarketplace.ListedToken[]",
          "name": "",
          "type": "tuple[]"
        }
      ],
      "stateMutability": "view",
      "type": "function"
    },
    {
      "inputs": [
        {
          "internalType": "uint256",
          "name": "tokenId",
          "type": "uint256"
        }
      ],
      "name": "getApproved",
      "outputs": [
        {
          "internalType": "address",
          "name": "",
          "type": "address"
        }
      ],
      "stateMutability": "view",
      "type": "function"
    },
    {
      "inputs": [],
      "name": "getCurrentToken",
      "outputs": [
        {
          "internalType": "uint256",
          "name": "",
          "type": "uint256"
        }
      ],
      "stateMutability": "view",
      "type": "function"
    },
    {
      "inputs": [],
      "name": "getLatestIdToListedToken",
      "outputs": [
        {
          "components": [
            {
              "internalType": "uint256",
              "name": "tokenId",
              "type": "uint256"
            },
            {
              "internalType": "address payable",
              "name": "owner",
              "type": "address"
            },
            {
              "internalType": "address payable",
              "name": "seller",
              "type": "address"
            },
            {
              "internalType": "uint256",
              "name": "price",
              "type": "uint256"
            },
            {
              "internalType": "bool",
              "name": "currentlyListed",
              "type": "bool"
            }
          ],
          "internalType": "struct NFTMarketplace.ListedToken",
          "name": "",
          "type": "tuple"
        }
      ],
      "stateMutability": "view",
      "type": "function"
    },
    {
      "inputs": [],
      "name": "getListPrice",
      "outputs": [
        {
          "internalType": "uint256",
          "name": "",
          "type": "uint256"
        }
      ],
      "stateMutability": "view",
      "type": "function"
    },
    {
      "inputs": [
        {
          "internalType": "uint256",
          "name": "tokenId",
          "type": "uint256"
        }
      ],
      "name": "getListedTokenForId",
      "outputs": [
        {
          "components": [
            {
              "internalType": "uint256",
              "name": "tokenId",
              "type": "uint256"
            },
            {
              "internalType": "address payable",
              "name": "owner",
              "type": "address"
            },
            {
              "internalType": "address payable",
              "name": "seller",
              "type": "address"
            },
            {
              "internalType": "uint256",
              "name": "price",
              "type": "uint256"
            },
            {
              "internalType": "bool",
              "name": "currentlyListed",
              "type": "bool"
            }
          ],
          "internalType": "struct NFTMarketplace.ListedToken",
          "name": "",
          "type": "tuple"
        }
      ],
      "stateMutability": "view",
      "type": "function"
    },
    {
      "inputs": [],
      "name": "getMyNFTs",
      "outputs": [
        {
          "components": [
            {
              "internalType": "uint256",
              "name": "tokenId",
              "type": "uint256"
            },
            {
              "internalType": "address payable",
              "name": "owner",
              "type": "address"
            },
            {
              "internalType": "address payable",
              "name": "seller",
              "type": "address"
            },
            {
              "internalType": "uint256",
              "name": "price",
              "type": "uint256"
            },
            {
              "internalType": "bool",
              "name": "currentlyListed",
              "type": "bool"
            }
          ],
          "internalType": "struct NFTMarketplace.ListedToken[]",
          "name": "",
          "type": "tuple[]"
        }
      ],
      "stateMutability": "view",
      "type": "function"
    },
    {
      "inputs": [
        {
          "internalType": "address",
          "name": "owner",
          "type": "address"
        },
        {
          "internalType": "address",
          "name": "operator",
          "type": "address"
        }
      ],
      "name": "isApprovedForAll",
      "outputs": [
        {
          "internalType": "bool",
          "name": "",
          "type": "bool"
        }
      ],
      "stateMutability": "view",
      "type": "function"
    },
    {
      "inputs": [],
      "name": "name",
      "outputs": [
        {
          "internalType": "string",
          "name": "",
          "type": "string"
        }
      ],
      "stateMutability": "view",
      "type": "function"
    },
    {
      "inputs": [
        {
          "internalType": "uint256",
          "name": "tokenId",
          "type": "uint256"
        }
      ],
      "name": "ownerOf",
      "outputs": [
        {
          "internalType": "address",
          "name": "",
          "type": "address"
        }
      ],
      "stateMutability": "view",
      "type": "function"
    },
    {
      "inputs": [
        {
          "internalType": "address",
          "name": "from",
          "type": "address"
        },
        {
          "internalType": "address",
          "name": "to",
          "type": "address"
        },
        {
          "internalType": "uint256",
          "name": "tokenId",
          "type": "uint256"
        }
      ],
      "name": "safeTransferFrom",
      "outputs": [],
      "stateMutability": "nonpayable",
      "type": "function"
    },
    {
      "inputs": [
        {
          "internalType": "address",
          "name": "from",
          "type": "address"
        },
        {
          "internalType": "address",
          "name": "to",
          "type": "address"
        },
        {
          "internalType": "uint256",
          "name": "tokenId",
          "type": "uint256"
        },
        {
          "internalType": "bytes",
          "name": "data",
          "type": "bytes"
        }
      ],
      "name": "safeTransferFrom",
      "outputs": [],
      "stateMutability": "nonpayable",
      "type": "function"
    },
    {
      "inputs": [
        {
          "internalType": "address",
          "name": "operator",
          "type": "address"
        },
        {
          "internalType": "bool",
          "name": "approved",
          "type": "bool"
        }
      ],
      "name": "setApprovalForAll",
      "outputs": [],
      "stateMutability": "nonpayable",
      "type": "function"
    },
    {
      "inputs": [
        {
          "internalType": "bytes4",
          "name": "interfaceId",
          "type": "bytes4"
        }
      ],
      "name": "supportsInterface",
      "outputs": [
        {
          "internalType": "bool",
          "name": "",
          "type": "bool"
        }
      ],
      "stateMutability": "view",
      "type": "function"
    },
    {
      "inputs": [],
      "name": "symbol",
      "outputs": [
        {
          "internalType": "string",
          "name": "",
          "type": "string"
        }
      ],
      "stateMutability": "view",
      "type": "function"
    },
    {
      "inputs": [
        {
          "internalType": "uint256",
          "name": "tokenId",
          "type": "uint256"
        }
      ],
      "name": "tokenURI",
      "outputs": [
        {
          "internalType": "string",
          "name": "",
          "type": "string"
        }
      ],
      "stateMutability": "view",
      "type": "function"
    },
    {
      "inputs": [
        {
          "internalType": "address",
          "name": "from",
          "type": "address"
        },
        {
          "internalType": "address",
          "name": "to",
          "type": "address"
        },
        {
          "internalType": "uint256",
          "name": "tokenId",
          "type": "uint256"
        }
      ],
      "name": "transferFrom",
      "outputs": [],
      "stateMutability": "nonpayable",
      "type": "function"
    },
    {
      "inputs": [
        {
          "internalType": "uint256",
          "name": "_listPrice",
          "type": "uint256"
        }
      ],
      "name": "updateListPrice",
      "outputs": [],
      "stateMutability": "payable",
      "type": "function"
    }
  ],
  "bytecode": "0x6080604052662386f26fc10000600a553480156200001c57600080fd5b50604080518082018252600e81526d4e46544d61726b6574706c61636560901b6020808301918252835180850190945260048452634e46544d60e01b9084015281519192916200006f91600091620000a0565b50805162000085906001906020840190620000a0565b5050600980546001600160a01b031916331790555062000183565b828054620000ae9062000146565b90600052602060002090601f016020900481019282620000d257600085556200011d565b82601f10620000ed57805160ff19168380011785556200011d565b828001600101855582156200011d579182015b828111156200011d57825182559160200191906001019062000100565b506200012b9291506200012f565b5090565b5b808211156200012b576000815560010162000130565b600181811c908216806200015b57607f821691505b602082108114156200017d57634e487b7160e01b600052602260045260246000fd5b50919050565b61227d80620001936000396000f3fe6080604052600436106101405760003560e01c80638e264590116100b6578063c87b56dd1161006f578063c87b56dd14610372578063d1a88ae514610392578063e0391b09146103a7578063e985e9c5146103bc578063ef2d174614610405578063f0437c451461041a57600080fd5b80638e264590146102ca57806395d89b41146102f75780639b1225c41461030c578063a22cb4651461031f578063b88d4fde1461033f578063c322579c1461035f57600080fd5b806342842e0e1161010857806342842e0e14610216578063629cb2e4146102365780636352211e1461025857806368f1945f1461027857806370a082311461029757806372b3b620146102b757600080fd5b806301ffc9a71461014557806306fdde031461017a578063081812fc1461019c578063095ea7b3146101d457806323b872dd146101f6575b600080fd5b34801561015157600080fd5b50610165610160366004611e79565b61042d565b60405190151581526020015b60405180910390f35b34801561018657600080fd5b5061018f610458565b6040516101719190612066565b3480156101a857600080fd5b506101bc6101b7366004611f07565b6104ea565b6040516001600160a01b039091168152602001610171565b3480156101e057600080fd5b506101f46101ef366004611e50565b610511565b005b34801561020257600080fd5b506101f4610211366004611d62565b61062c565b34801561022257600080fd5b506101f4610231366004611d62565b61065d565b34801561024257600080fd5b5061024b610678565b6040516101719190612018565b34801561026457600080fd5b506101bc610273366004611f07565b6108bb565b34801561028457600080fd5b50600a545b604051908152602001610171565b3480156102a357600080fd5b506102896102b2366004611d16565b61091b565b6102896102c5366004611eb1565b6109a1565b3480156102d657600080fd5b506102ea6102e5366004611f07565b6109e3565b604051610171919061215d565b34801561030357600080fd5b5061018f610a4d565b6101f461031a366004611f07565b610a5c565b34801561032b57600080fd5b506101f461033a366004611e16565b610c1f565b34801561034b57600080fd5b506101f461035a366004611d9d565b610c2e565b6101f461036d366004611f07565b610c66565b34801561037e57600080fd5b5061018f61038d366004611f07565b610cd1565b34801561039e57600080fd5b506102ea610de2565b3480156103b357600080fd5b5061024b610e59565b3480156103c857600080fd5b506101656103d7366004611d30565b6001600160a01b03918216600090815260056020908152604080832093909416825291909152205460ff1690565b34801561041157600080fd5b50610289610f9f565b6101f4610428366004611f1f565b610faf565b60006001600160e01b03198216632483248360e11b148061045257506104528261106b565b92915050565b606060008054610467906121af565b80601f0160208091040260200160405190810160405280929190818152602001828054610493906121af565b80156104e05780601f106104b5576101008083540402835291602001916104e0565b820191906000526020600020905b8154815290600101906020018083116104c357829003601f168201915b5050505050905090565b60006104f5826110bb565b506000908152600460205260409020546001600160a01b031690565b600061051c826108bb565b9050806001600160a01b0316836001600160a01b0316141561058f5760405162461bcd60e51b815260206004820152602160248201527f4552433732313a20617070726f76616c20746f2063757272656e74206f776e656044820152603960f91b60648201526084015b60405180910390fd5b336001600160a01b03821614806105ab57506105ab81336103d7565b61061d5760405162461bcd60e51b815260206004820152603d60248201527f4552433732313a20617070726f76652063616c6c6572206973206e6f7420746f60448201527f6b656e206f776e6572206f7220617070726f76656420666f7220616c6c0000006064820152608401610586565b610627838361111d565b505050565b610636338261118b565b6106525760405162461bcd60e51b815260040161058690612079565b610627838383611209565b61062783838360405180602001604052806000815250610c2e565b6060600061068560075490565b905060008080805b8481101561071d5733600b60006106a584600161216b565b81526020810191909152604001600020600101546001600160a01b031614806106f8575033600b60006106d984600161216b565b81526020810191909152604001600020600201546001600160a01b0316145b1561070b5761070860018561216b565b93505b80610715816121ea565b91505061068d565b5060008367ffffffffffffffff81111561074757634e487b7160e01b600052604160045260246000fd5b60405190808252806020026020018201604052801561078057816020015b61076d611bbd565b8152602001906001900390816107655790505b50905060005b858110156108b15733600b600061079e84600161216b565b81526020810191909152604001600020600101546001600160a01b031614806107f1575033600b60006107d284600161216b565b81526020810191909152604001600020600201546001600160a01b0316145b1561089f5761080181600161216b565b6000818152600b6020908152604091829020825160a0810184528154815260018201546001600160a01b039081169382019390935260028201549092169282019290925260038201546060820152600482015460ff16151560808201528451929550909184908790811061088557634e487b7160e01b600052603260045260246000fd5b602090810291909101015261089b60018661216b565b9450505b806108a9816121ea565b915050610786565b5095945050505050565b6000818152600260205260408120546001600160a01b0316806104525760405162461bcd60e51b8152602060048201526018602482015277115490cdcc8c4e881a5b9d985b1a59081d1bdad95b88125160421b6044820152606401610586565b60006001600160a01b0382166109855760405162461bcd60e51b815260206004820152602960248201527f4552433732313a2061646472657373207a65726f206973206e6f7420612076616044820152683634b21037bbb732b960b91b6064820152608401610586565b506001600160a01b031660009081526003602052604090205490565b60006109b1600780546001019055565b60006109bc60075490565b90506109c8338261136d565b6109d28185611387565b6109dc8184611459565b9392505050565b6109eb611bbd565b506000908152600b6020908152604091829020825160a0810184528154815260018201546001600160a01b03908116938201939093526002820154909216928201929092526003820154606082015260049091015460ff161515608082015290565b606060018054610467906121af565b6000818152600b602052604090206003810154600182015460049092015490916001600160a01b03169060ff16610ad55760405162461bcd60e51b815260206004820152601860248201527f54686973204e4654206973206e6f7420666f722073616c6500000000000000006044820152606401610586565b81341015610b4d576040805162461bcd60e51b81526020600482015260248101919091527f506c65617365207375626d6974207468652061736b696e67207072696365206960448201527f6e206f7264657220746f20636f6d706c657465207468652070757263686173656064820152608401610586565b610b58303385611209565b6040516001600160a01b038216903480156108fc02916000818181858888f19350505050158015610b8d573d6000803e3d6000fd5b50506040805160a08101825283815233602080830191825260008385018181526060850182815260808601838152988352600b9093529490209251835590516001830180546001600160a01b03199081166001600160a01b039384161790915593516002840180549095169116179092559051600382015591516004909201805460ff19169215159290921790915550565b610c2a3383836115fa565b5050565b610c38338361118b565b610c545760405162461bcd60e51b815260040161058690612079565b610c60848484846116c9565b50505050565b6009546001600160a01b03163314610ccc5760405162461bcd60e51b815260206004820152602360248201527f4f6e6c79206f776e65722063616e20757064617465206c697374696e6720707260448201526269636560e81b6064820152608401610586565b600a55565b6060610cdc826110bb565b60008281526006602052604081208054610cf5906121af565b80601f0160208091040260200160405190810160405280929190818152602001828054610d21906121af565b8015610d6e5780601f10610d4357610100808354040283529160200191610d6e565b820191906000526020600020905b815481529060010190602001808311610d5157829003601f168201915b505050505090506000610d8c60408051602081019091526000815290565b9050805160001415610d9f575092915050565b815115610dd1578082604051602001610db9929190611fac565b60405160208183030381529060405292505050919050565b610dda846116fc565b949350505050565b610dea611bbd565b6000610df560075490565b6000908152600b6020908152604091829020825160a0810184528154815260018201546001600160a01b03908116938201939093526002820154909216928201929092526003820154606082015260049091015460ff161515608082015292915050565b60606000610e6660075490565b905060008167ffffffffffffffff811115610e9157634e487b7160e01b600052604160045260246000fd5b604051908082528060200260200182016040528015610eca57816020015b610eb7611bbd565b815260200190600190039081610eaf5790505b509050600080805b84811015610f9557610ee581600161216b565b6000818152600b6020908152604091829020825160a0810184528154815260018201546001600160a01b039081169382019390935260028201549092169282019290925260038201546060820152600482015460ff161515608082015286519294509091869086908110610f6957634e487b7160e01b600052603260045260246000fd5b6020908102919091010152610f7f60018561216b565b9350508080610f8d906121ea565b915050610ed2565b5091949350505050565b6000610faa60075490565b905090565b6007548211156110015760405162461bcd60e51b815260206004820152601a60248201527f506c6561736520656e6465722076616c696420746f6b656e49640000000000006044820152606401610586565b3361100b836108bb565b6001600160a01b0316146110615760405162461bcd60e51b815260206004820152601f60248201527f796f7520617265206e6f74206f776e6572206f66207468697320546f6b656e006044820152606401610586565b610c2a8282611459565b60006001600160e01b031982166380ac58cd60e01b148061109c57506001600160e01b03198216635b5e139f60e01b145b8061045257506301ffc9a760e01b6001600160e01b0319831614610452565b6000818152600260205260409020546001600160a01b031661111a5760405162461bcd60e51b8152602060048201526018602482015277115490cdcc8c4e881a5b9d985b1a59081d1bdad95b88125160421b6044820152606401610586565b50565b600081815260046020526040902080546001600160a01b0319166001600160a01b0384169081179091558190611152826108bb565b6001600160a01b03167f8c5be1e5ebec7d5bd14f71427d1e84f3dd0314c0f7b2291e5b200ac8c7c3b92560405160405180910390a45050565b600080611197836108bb565b9050806001600160a01b0316846001600160a01b031614806111de57506001600160a01b0380821660009081526005602090815260408083209388168352929052205460ff165b80610dda5750836001600160a01b03166111f7846104ea565b6001600160a01b031614949350505050565b826001600160a01b031661121c826108bb565b6001600160a01b0316146112425760405162461bcd60e51b815260040161058690612118565b6001600160a01b0382166112a45760405162461bcd60e51b8152602060048201526024808201527f4552433732313a207472616e7366657220746f20746865207a65726f206164646044820152637265737360e01b6064820152608401610586565b826001600160a01b03166112b7826108bb565b6001600160a01b0316146112dd5760405162461bcd60e51b815260040161058690612118565b600081815260046020908152604080832080546001600160a01b03199081169091556001600160a01b0387811680865260038552838620805460001901905590871680865283862080546001019055868652600290945282852080549092168417909155905184937fddf252ad1be2c89b69c2b068fc378daa952ba7f163c4a11628f55a4df523b3ef91a4505050565b610c2a82826040518060200160405280600081525061176f565b6000828152600260205260409020546001600160a01b03166114025760405162461bcd60e51b815260206004820152602e60248201527f45524337323155524953746f726167653a2055524920736574206f66206e6f6e60448201526d32bc34b9ba32b73a103a37b5b2b760911b6064820152608401610586565b6000828152600660209081526040909120825161142192840190611beb565b506040518281527ff8e1a15aba9398e019f0b49df1a4fde98ee17ae345cb5f6b5e2c27f5033e8ce79060200160405180910390a15050565b600a5434146114b65760405162461bcd60e51b815260206004820152602360248201527f486f706566756c6c792073656e64696e672074686520636f727265637420707260448201526269636560e81b6064820152608401610586565b600081116115115760405162461bcd60e51b815260206004820152602260248201527f4d616b652073757265207468652070726963652069736e2774206e6567617469604482015261766560f01b6064820152608401610586565b6040805160a081018252838152336020808301828152308486018181526060860188815260016080880181815260008c8152600b9097529890952096518755925193860180546001600160a01b039586166001600160a01b03199182161790915590516002870180549190951691161790925551600384015592516004909201805492151560ff19909316929092179091556115ad9184611209565b604080513381523060208201529081018290526001606082015282907f9339409317fd01fabff48b703019016f49159bacc801ae872d2ca637d226e4c09060800160405180910390a25050565b816001600160a01b0316836001600160a01b0316141561165c5760405162461bcd60e51b815260206004820152601960248201527f4552433732313a20617070726f766520746f2063616c6c6572000000000000006044820152606401610586565b6001600160a01b03838116600081815260056020908152604080832094871680845294825291829020805460ff191686151590811790915591519182527f17307eab39ab6107e8899845ad3d59bd9653f200f220920489ca2b5937696c31910160405180910390a3505050565b6116d4848484611209565b6116e0848484846117a2565b610c605760405162461bcd60e51b8152600401610586906120c6565b6060611707826110bb565b600061171e60408051602081019091526000815290565b9050600081511161173e57604051806020016040528060008152506109dc565b80611748846118af565b604051602001611759929190611fac565b6040516020818303038152906040529392505050565b611779838361195a565b61178660008484846117a2565b6106275760405162461bcd60e51b8152600401610586906120c6565b60006001600160a01b0384163b156118a457604051630a85bd0160e11b81526001600160a01b0385169063150b7a02906117e6903390899088908890600401611fdb565b602060405180830381600087803b15801561180057600080fd5b505af1925050508015611830575060408051601f3d908101601f1916820190925261182d91810190611e95565b60015b61188a573d80801561185e576040519150601f19603f3d011682016040523d82523d6000602084013e611863565b606091505b5080516118825760405162461bcd60e51b8152600401610586906120c6565b805181602001fd5b6001600160e01b031916630a85bd0160e11b149050610dda565b506001949350505050565b606060006118bc83611ae5565b600101905060008167ffffffffffffffff8111156118ea57634e487b7160e01b600052604160045260246000fd5b6040519080825280601f01601f191660200182016040528015611914576020820181803683370190505b5090508181016020015b600019016f181899199a1a9b1b9c1cb0b131b232b360811b600a86061a8153600a850494508461194d57611952565b61191e565b509392505050565b6001600160a01b0382166119b05760405162461bcd60e51b815260206004820181905260248201527f4552433732313a206d696e7420746f20746865207a65726f20616464726573736044820152606401610586565b6000818152600260205260409020546001600160a01b031615611a155760405162461bcd60e51b815260206004820152601c60248201527f4552433732313a20746f6b656e20616c7265616479206d696e746564000000006044820152606401610586565b6000818152600260205260409020546001600160a01b031615611a7a5760405162461bcd60e51b815260206004820152601c60248201527f4552433732313a20746f6b656e20616c7265616479206d696e746564000000006044820152606401610586565b6001600160a01b038216600081815260036020908152604080832080546001019055848352600290915280822080546001600160a01b0319168417905551839291907fddf252ad1be2c89b69c2b068fc378daa952ba7f163c4a11628f55a4df523b3ef908290a45050565b60008072184f03e93ff9f4daa797ed6e38ed64bf6a1f0160401b8310611b245772184f03e93ff9f4daa797ed6e38ed64bf6a1f0160401b830492506040015b6d04ee2d6d415b85acef81000000008310611b50576d04ee2d6d415b85acef8100000000830492506020015b662386f26fc100008310611b6e57662386f26fc10000830492506010015b6305f5e1008310611b86576305f5e100830492506008015b6127108310611b9a57612710830492506004015b60648310611bac576064830492506002015b600a83106104525760010192915050565b6040805160a08101825260008082526020820181905291810182905260608101829052608081019190915290565b828054611bf7906121af565b90600052602060002090601f016020900481019282611c195760008555611c5f565b82601f10611c3257805160ff1916838001178555611c5f565b82800160010185558215611c5f579182015b82811115611c5f578251825591602001919060010190611c44565b50611c6b929150611c6f565b5090565b5b80821115611c6b5760008155600101611c70565b600067ffffffffffffffff80841115611c9f57611c9f61221b565b604051601f8501601f19908116603f01168101908282118183101715611cc757611cc761221b565b81604052809350858152868686011115611ce057600080fd5b858560208301376000602087830101525050509392505050565b80356001600160a01b0381168114611d1157600080fd5b919050565b600060208284031215611d27578081fd5b6109dc82611cfa565b60008060408385031215611d42578081fd5b611d4b83611cfa565b9150611d5960208401611cfa565b90509250929050565b600080600060608486031215611d76578081fd5b611d7f84611cfa565b9250611d8d60208501611cfa565b9150604084013590509250925092565b60008060008060808587031215611db2578081fd5b611dbb85611cfa565b9350611dc960208601611cfa565b925060408501359150606085013567ffffffffffffffff811115611deb578182fd5b8501601f81018713611dfb578182fd5b611e0a87823560208401611c84565b91505092959194509250565b60008060408385031215611e28578182fd5b611e3183611cfa565b915060208301358015158114611e45578182fd5b809150509250929050565b60008060408385031215611e62578182fd5b611e6b83611cfa565b946020939093013593505050565b600060208284031215611e8a578081fd5b81356109dc81612231565b600060208284031215611ea6578081fd5b81516109dc81612231565b60008060408385031215611ec3578182fd5b823567ffffffffffffffff811115611ed9578283fd5b8301601f81018513611ee9578283fd5b611ef885823560208401611c84565b95602094909401359450505050565b600060208284031215611f18578081fd5b5035919050565b60008060408385031215611f31578182fd5b50508035926020909101359150565b60008151808452611f58816020860160208601612183565b601f01601f19169290920160200192915050565b805182526020808201516001600160a01b039081169184019190915260408083015190911690830152606080820151908301526080908101511515910152565b60008351611fbe818460208801612183565b835190830190611fd2818360208801612183565b01949350505050565b6001600160a01b038581168252841660208201526040810183905260806060820181905260009061200e90830184611f40565b9695505050505050565b6020808252825182820181905260009190848201906040850190845b8181101561205a57612047838551611f6c565b9284019260a09290920191600101612034565b50909695505050505050565b6020815260006109dc6020830184611f40565b6020808252602d908201527f4552433732313a2063616c6c6572206973206e6f7420746f6b656e206f776e6560408201526c1c881bdc88185c1c1c9bdd9959609a1b606082015260800190565b60208082526032908201527f4552433732313a207472616e7366657220746f206e6f6e20455243373231526560408201527131b2b4bb32b91034b6b83632b6b2b73a32b960711b606082015260800190565b60208082526025908201527f4552433732313a207472616e736665722066726f6d20696e636f72726563742060408201526437bbb732b960d91b606082015260800190565b60a081016104528284611f6c565b6000821982111561217e5761217e612205565b500190565b60005b8381101561219e578181015183820152602001612186565b83811115610c605750506000910152565b600181811c908216806121c357607f821691505b602082108114156121e457634e487b7160e01b600052602260045260246000fd5b50919050565b60006000198214156121fe576121fe612205565b5060010190565b634e487b7160e01b600052601160045260246000fd5b634e487b7160e01b600052604160045260246000fd5b6001600160e01b03198116811461111a57600080fdfea2646970667358221220c54ce131183afbaba6dc57106b11aeb33efdcd7e4d6e7db40d2cc607cf15f3f364736f6c63430008040033",
  "linkReferences": {},
  "deployedLinkReferences": {}
}