{
  "_format": "hh-sol-artifact-1",
  "contractName": "nftsIPFS",
  "sourceName": "contracts/nftIPFS.sol",
  "abi": [
    {
      "inputs": [
        {
          "internalType": "uint256",
          "name": "_id",
          "type": "uint256"
        }
      ],
      "name": "donateToImage",
      "outputs": [],
      "stateMutability": "payable",
      "type": "function"
    },
    {
      "inputs": [],
      "name": "getAllNFTs",
      "outputs": [
        {
          "components": [
            {
              "internalType": "string",
              "name": "title",
              "type": "string"
            },
            {
              "internalType": "string",
              "name": "description",
              "type": "string"
            },
            {
              "internalType": "string",
              "name": "email",
              "type": "string"
            },
            {
              "internalType": "string",
              "name": "category",
              "type": "string"
            },
            {
              "internalType": "uint256",
              "name": "fundraised",
              "type": "uint256"
            },
            {
              "internalType": "address",
              "name": "creator",
              "type": "address"
            },
            {
              "internalType": "string",
              "name": "image",
              "type": "string"
            },
            {
              "internalType": "uint256",
              "name": "timestamp",
              "type": "uint256"
            },
            {
              "internalType": "uint256",
              "name": "id",
              "type": "uint256"
            }
          ],
          "internalType": "struct nftsIPFS.NFTs[]",
          "name": "",
          "type": "tuple[]"
        }
      ],
      "stateMutability": "view",
      "type": "function"
    },
    {
      "inputs": [
        {
          "internalType": "uint256",
          "name": "id",
          "type": "uint256"
        }
      ],
      "name": "getImage",
      "outputs": [
        {
          "internalType": "string",
          "name": "",
          "type": "string"
        },
        {
          "internalType": "string",
          "name": "",
          "type": "string"
        },
        {
          "internalType": "string",
          "name": "",
          "type": "string"
        },
        {
          "internalType": "string",
          "name": "",
          "type": "string"
        },
        {
          "internalType": "uint256",
          "name": "",
          "type": "uint256"
        },
        {
          "internalType": "address",
          "name": "",
          "type": "address"
        },
        {
          "internalType": "string",
          "name": "",
          "type": "string"
        },
        {
          "internalType": "uint256",
          "name": "",
          "type": "uint256"
        },
        {
          "internalType": "uint256",
          "name": "",
          "type": "uint256"
        }
      ],
      "stateMutability": "view",
      "type": "function"
    },
    {
      "inputs": [],
      "name": "imagesCount",
      "outputs": [
        {
          "internalType": "uint256",
          "name": "",
          "type": "uint256"
        }
      ],
      "stateMutability": "view",
      "type": "function"
    },
    {
      "inputs": [],
      "name": "listingPrice",
      "outputs": [
        {
          "internalType": "uint256",
          "name": "",
          "type": "uint256"
        }
      ],
      "stateMutability": "view",
      "type": "function"
    },
    {
      "inputs": [
        {
          "internalType": "uint256",
          "name": "",
          "type": "uint256"
        }
      ],
      "name": "nftImages",
      "outputs": [
        {
          "internalType": "string",
          "name": "title",
          "type": "string"
        },
        {
          "internalType": "string",
          "name": "description",
          "type": "string"
        },
        {
          "internalType": "string",
          "name": "email",
          "type": "string"
        },
        {
          "internalType": "string",
          "name": "category",
          "type": "string"
        },
        {
          "internalType": "uint256",
          "name": "fundraised",
          "type": "uint256"
        },
        {
          "internalType": "address",
          "name": "creator",
          "type": "address"
        },
        {
          "internalType": "string",
          "name": "image",
          "type": "string"
        },
        {
          "internalType": "uint256",
          "name": "timestamp",
          "type": "uint256"
        },
        {
          "internalType": "uint256",
          "name": "id",
          "type": "uint256"
        }
      ],
      "stateMutability": "view",
      "type": "function"
    },
    {
      "inputs": [
        {
          "internalType": "uint256",
          "name": "_listingPrice",
          "type": "uint256"
        },
        {
          "internalType": "address",
          "name": "owner",
          "type": "address"
        }
      ],
      "name": "updateListingPrice",
      "outputs": [],
      "stateMutability": "payable",
      "type": "function"
    },
    {
      "inputs": [
        {
          "internalType": "address",
          "name": "_creator",
          "type": "address"
        },
        {
          "internalType": "string",
          "name": "_image",
          "type": "string"
        },
        {
          "internalType": "string",
          "name": "_title",
          "type": "string"
        },
        {
          "internalType": "string",
          "name": "_description",
          "type": "string"
        },
        {
          "internalType": "string",
          "name": "_email",
          "type": "string"
        },
        {
          "internalType": "string",
          "name": "_category",
          "type": "string"
        }
      ],
      "name": "uploadIPFS",
      "outputs": [
        {
          "internalType": "string",
          "name": "",
          "type": "string"
        },
        {
          "internalType": "string",
          "name": "",
          "type": "string"
        },
        {
          "internalType": "string",
          "name": "",
          "type": "string"
        },
        {
          "internalType": "address",
          "name": "",
          "type": "address"
        },
        {
          "internalType": "string",
          "name": "",
          "type": "string"
        }
      ],
      "stateMutability": "payable",
      "type": "function"
    },
    {
      "inputs": [
        {
          "internalType": "address",
          "name": "_owner",
          "type": "address"
        }
      ],
      "name": "withdraw",
      "outputs": [],
      "stateMutability": "nonpayable",
      "type": "function"
    }
  ],
  "bytecode": "0x6080604052600080546001600160a01b0319167396d50d05dcc2a19ad1c5e9879bc331d3153a12791781556658d15e1762800060015560035534801561004457600080fd5b50611577806100546000396000f3fe6080604052600436106100865760003560e01c806380cad5a61161005957806380cad5a61461012f578063943e96f614610142578063c78f19f914610155578063e0391b091461016b578063f2a6cb4c1461018d57600080fd5b80632607aafa1461008b578063433ea889146100c957806351cff8d9146100e957806356e224af1461010b575b600080fd5b34801561009757600080fd5b506100ab6100a636600461120a565b6101b1565b6040516100c099989796959493929190611413565b60405180910390f35b3480156100d557600080fd5b506100ab6100e436600461120a565b61053f565b3480156100f557600080fd5b5061010961010436600461110e565b61083b565b005b34801561011757600080fd5b5061012160035481565b6040519081526020016100c0565b61010961013d366004611222565b61091e565b61010961015036600461120a565b610997565b34801561016157600080fd5b5061012160015481565b34801561017757600080fd5b50610180610a20565b6040516100c09190611298565b6101a061019b36600461112f565b610e77565b6040516100c09594939291906113ab565b60608060608060008060606000806000600260008c8152602001908152602001600020604051806101200160405290816000820180546101f0906114bf565b80601f016020809104026020016040519081016040528092919081815260200182805461021c906114bf565b80156102695780601f1061023e57610100808354040283529160200191610269565b820191906000526020600020905b81548152906001019060200180831161024c57829003601f168201915b50505050508152602001600182018054610282906114bf565b80601f01602080910402602001604051908101604052809291908181526020018280546102ae906114bf565b80156102fb5780601f106102d0576101008083540402835291602001916102fb565b820191906000526020600020905b8154815290600101906020018083116102de57829003601f168201915b50505050508152602001600282018054610314906114bf565b80601f0160208091040260200160405190810160405280929190818152602001828054610340906114bf565b801561038d5780601f106103625761010080835404028352916020019161038d565b820191906000526020600020905b81548152906001019060200180831161037057829003601f168201915b505050505081526020016003820180546103a6906114bf565b80601f01602080910402602001604051908101604052809291908181526020018280546103d2906114bf565b801561041f5780601f106103f45761010080835404028352916020019161041f565b820191906000526020600020905b81548152906001019060200180831161040257829003601f168201915b50505091835250506004820154602082015260058201546001600160a01b03166040820152600682018054606090920191610459906114bf565b80601f0160208091040260200160405190810160405280929190818152602001828054610485906114bf565b80156104d25780601f106104a7576101008083540402835291602001916104d2565b820191906000526020600020905b8154815290600101906020018083116104b557829003601f168201915b50505050508152602001600782015481526020016008820154815250509050806000015181602001518260400151836060015184608001518560a001518660c001518760e00151886101000151995099509950995099509950995099509950509193959799909294969850565b60026020526000908152604090208054819061055a906114bf565b80601f0160208091040260200160405190810160405280929190818152602001828054610586906114bf565b80156105d35780601f106105a8576101008083540402835291602001916105d3565b820191906000526020600020905b8154815290600101906020018083116105b657829003601f168201915b5050505050908060010180546105e8906114bf565b80601f0160208091040260200160405190810160405280929190818152602001828054610614906114bf565b80156106615780601f1061063657610100808354040283529160200191610661565b820191906000526020600020905b81548152906001019060200180831161064457829003601f168201915b505050505090806002018054610676906114bf565b80601f01602080910402602001604051908101604052809291908181526020018280546106a2906114bf565b80156106ef5780601f106106c4576101008083540402835291602001916106ef565b820191906000526020600020905b8154815290600101906020018083116106d257829003601f168201915b505050505090806003018054610704906114bf565b80601f0160208091040260200160405190810160405280929190818152602001828054610730906114bf565b801561077d5780601f106107525761010080835404028352916020019161077d565b820191906000526020600020905b81548152906001019060200180831161076057829003601f168201915b5050505060048301546005840154600685018054949592946001600160a01b039092169350906107ac906114bf565b80601f01602080910402602001604051908101604052809291908181526020018280546107d8906114bf565b80156108255780601f106107fa57610100808354040283529160200191610825565b820191906000526020600020905b81548152906001019060200180831161080857829003601f168201915b5050505050908060070154908060080154905089565b6000546001600160a01b0382811691161461089d5760405162461bcd60e51b815260206004820152601760248201527f4f6e6c79206f776e65722063616e20776974686472617700000000000000000060448201526064015b60405180910390fd5b47806108e05760405162461bcd60e51b81526020600482015260126024820152714e6f2046756e647320617661696c61626c6560701b6044820152606401610894565b600080546040516001600160a01b039091169183156108fc02918491818181858888f19350505050158015610919573d6000803e3d6000fd5b505050565b6000546001600160a01b038281169116146109915760405162461bcd60e51b815260206004820152602d60248201527f4f6e6c7920636f6e7472616374206f776e65722063616e20757064617465206c60448201526c34b9ba34b73390383934b1b29760991b6064820152608401610894565b50600155565b60008181526002602052604080822060058101549151349391926001600160a01b03169084908381818185875af1925050503d80600081146109f5576040519150601f19603f3d011682016040523d82523d6000602084013e6109fa565b606091505b505090508015610a1a57828260040154610a1491906114a7565b60048301555b50505050565b6003546060906000808267ffffffffffffffff811115610a5057634e487b7160e01b600052604160045260246000fd5b604051908082528060200260200182016040528015610ad957816020015b610ac6604051806101200160405280606081526020016060815260200160608152602001606081526020016000815260200160006001600160a01b031681526020016060815260200160008152602001600081525090565b815260200190600190039081610a6e5790505b50905060005b83811015610e6f576000610af48260016114a7565b6000818152600260205260409081902081516101208101909252805492935091829082908290610b23906114bf565b80601f0160208091040260200160405190810160405280929190818152602001828054610b4f906114bf565b8015610b9c5780601f10610b7157610100808354040283529160200191610b9c565b820191906000526020600020905b815481529060010190602001808311610b7f57829003601f168201915b50505050508152602001600182018054610bb5906114bf565b80601f0160208091040260200160405190810160405280929190818152602001828054610be1906114bf565b8015610c2e5780601f10610c0357610100808354040283529160200191610c2e565b820191906000526020600020905b815481529060010190602001808311610c1157829003601f168201915b50505050508152602001600282018054610c47906114bf565b80601f0160208091040260200160405190810160405280929190818152602001828054610c73906114bf565b8015610cc05780601f10610c9557610100808354040283529160200191610cc0565b820191906000526020600020905b815481529060010190602001808311610ca357829003601f168201915b50505050508152602001600382018054610cd9906114bf565b80601f0160208091040260200160405190810160405280929190818152602001828054610d05906114bf565b8015610d525780601f10610d2757610100808354040283529160200191610d52565b820191906000526020600020905b815481529060010190602001808311610d3557829003601f168201915b50505091835250506004820154602082015260058201546001600160a01b03166040820152600682018054606090920191610d8c906114bf565b80601f0160208091040260200160405190810160405280929190818152602001828054610db8906114bf565b8015610e055780601f10610dda57610100808354040283529160200191610e05565b820191906000526020600020905b815481529060010190602001808311610de857829003601f168201915b5050505050815260200160078201548152602001600882015481525050848681518110610e4257634e487b7160e01b600052603260045260246000fd5b6020908102919091010152610e586001866114a7565b945050508080610e67906114fa565b915050610adf565b509392505050565b60608060606000606060036000815480929190610e93906114fa565b909155505060408051610120810182528a815260208082018b90528183018a9052606082018990526000608083018190526001600160a01b038f1660a084015260c083018e90524260e08401526003546101008401819052815260028252929092208151805192939192610f0a9284920190610fd2565b506020828101518051610f239260018501920190610fd2565b5060408201518051610f3f916002840191602090910190610fd2565b5060608201518051610f5b916003840191602090910190610fd2565b506080820151600482015560a08201516005820180546001600160a01b0319166001600160a01b0390921691909117905560c08201518051610fa7916006840191602090910190610fd2565b5060e08201516007820155610100909101516008909101555096999598939793965092949350505050565b828054610fde906114bf565b90600052602060002090601f0160209004810192826110005760008555611046565b82601f1061101957805160ff1916838001178555611046565b82800160010185558215611046579182015b8281111561104657825182559160200191906001019061102b565b50611052929150611056565b5090565b5b808211156110525760008155600101611057565b80356001600160a01b038116811461108257600080fd5b919050565b600082601f830112611097578081fd5b813567ffffffffffffffff808211156110b2576110b261152b565b604051601f8301601f19908116603f011681019082821181831017156110da576110da61152b565b816040528381528660208588010111156110f2578485fd5b8360208701602083013792830160200193909352509392505050565b60006020828403121561111f578081fd5b6111288261106b565b9392505050565b60008060008060008060c08789031215611147578182fd5b6111508761106b565b9550602087013567ffffffffffffffff8082111561116c578384fd5b6111788a838b01611087565b9650604089013591508082111561118d578384fd5b6111998a838b01611087565b955060608901359150808211156111ae578384fd5b6111ba8a838b01611087565b945060808901359150808211156111cf578384fd5b6111db8a838b01611087565b935060a08901359150808211156111f0578283fd5b506111fd89828a01611087565b9150509295509295509295565b60006020828403121561121b578081fd5b5035919050565b60008060408385031215611234578182fd5b823591506112446020840161106b565b90509250929050565b60008151808452815b8181101561127257602081850181015186830182015201611256565b818111156112835782602083870101525b50601f01601f19169290920160200192915050565b60006020808301818452808551808352604092508286019150828160051b870101848801865b8381101561139d57603f19898403018552815161012081518186526112e58287018261124d565b915050888201518582038a8701526112fd828261124d565b9150508782015185820389870152611315828261124d565b9150506060808301518683038288015261132f838261124d565b92505050608080830151818701525060a080830151611358828801826001600160a01b03169052565b505060c08083015186830382880152611371838261124d565b60e0858101519089015261010094850151949097019390935250505093860193908601906001016112be565b509098975050505050505050565b60a0815260006113be60a083018861124d565b82810360208401526113d0818861124d565b905082810360408401526113e4818761124d565b6001600160a01b038616606085015283810360808501529050611407818561124d565b98975050505050505050565b60006101208083526114278184018d61124d565b9050828103602084015261143b818c61124d565b9050828103604084015261144f818b61124d565b90508281036060840152611463818a61124d565b608084018990526001600160a01b03881660a085015283810360c0850152905061148d818761124d565b60e084019590955250506101000152979650505050505050565b600082198211156114ba576114ba611515565b500190565b600181811c908216806114d357607f821691505b602082108114156114f457634e487b7160e01b600052602260045260246000fd5b50919050565b600060001982141561150e5761150e611515565b5060010190565b634e487b7160e01b600052601160045260246000fd5b634e487b7160e01b600052604160045260246000fdfea2646970667358221220bf47d289e6e1b5d6c8fb68a007aa64d7ac8771d33d06d91856bf534524236b6364736f6c63430008040033",
  "linkReferences": {},
  "deployedLinkReferences": {}
}